:020000040800F2
:10000000002000204D0A0008150A00081B0A0008FD
:1000100000000000000000000000000000000000E0
:10002000000000000000000000000000210A00089D
:1000300000000000000000002B0A0008350A00083C
:100040009D0A00089D0A00089D0A00089D0A0008F4
:100050009D0A00089D0A00089D0A00089D0A0008E4
:10006000000000009D0A00089D0A00089D0A000883
:100070009D0A00089D0A00089D0A00089D0A0008C4
:100080009D0A00089D0A00089D0A00089D0A0008B4
:10009000000000009D0A00089D0A00089D0A000853
:1000A0009D0A00089D0A00089D0A00089D0A000894
:0C00B0009D0A00089D0A000800000000E6
:1000BC0010B5064C2378002B07D1054B002B02D032
:1000CC00044800E000BF0123237010BD0C00002089
:1000DC00000000001C290008044B10B5002B03D0B5
:1000EC000349044800E000BF10BDC04600000000FA
:1000FC00100000201C290008002243088B4274D3F6
:10010C0003098B425FD3030A8B4244D3030B8B420C
:10011C0028D3030C8B420DD3FF22090212BA030C15
:10012C008B4202D31212090265D0030B8B4219D3F6
:10013C0000E0090AC30B8B4201D3CB03C01A524116
:10014C00830B8B4201D38B03C01A5241430B8B425E
:10015C0001D34B03C01A5241030B8B4201D30B0347
:10016C00C01A5241C30A8B4201D3CB02C01A52416E
:10017C00830A8B4201D38B02C01A5241430A8B4231
:10018C0001D34B02C01A5241030A8B4201D30B021A
:10019C00C01A5241CDD2C3098B4201D3CB01C01A34
:1001AC00524183098B4201D38B01C01A524143093E
:1001BC008B4201D34B01C01A524103098B4201D32C
:1001CC000B01C01A5241C3088B4201D3CB00C01A99
:1001DC00524183088B4201D38B00C01A5241430811
:1001EC008B4201D34B00C01A5241411A00D2014636
:1001FC00524110467047FFE701B5002000F0F0F8BF
:10020C0002BDC0460029F7D076E7704703460B4382
:10021C007FD4002243088B4274D303098B425FD3F3
:10022C00030A8B4244D3030B8B4228D3030C8B421F
:10023C000DD3FF22090212BA030C8B4202D3121205
:10024C00090265D0030B8B4219D300E0090AC30BDA
:10025C008B4201D3CB03C01A5241830B8B4201D387
:10026C008B03C01A5241430B8B4201D34B03C01A70
:10027C005241030B8B4201D30B03C01A5241C30AE8
:10028C008B4201D3CB02C01A5241830A8B4201D359
:10029C008B02C01A5241430A8B4201D34B02C01A43
:1002AC005241030A8B4201D30B02C01A5241CDD2E8
:1002BC00C3098B4201D3CB01C01A524183098B4233
:1002CC0001D38B01C01A524143098B4201D34B011C
:1002DC00C01A524103098B4201D30B01C01A52417F
:1002EC00C3088B4201D3CB00C01A524183088B4206
:1002FC0001D38B00C01A524143088B4201D34B00EF
:10030C00C01A5241411A00D2014652411046704760
:10031C005DE0CA0F00D04942031000D34042534065
:10032C0000229C4603098B422DD3030A8B4212D325
:10033C00FC22890112BA030A8B420CD38901921157
:10034C008B4208D3890192118B4204D389013AD094
:10035C00921100E08909C3098B4201D3CB01C01A69
:10036C00524183098B4201D38B01C01A524143097C
:10037C008B4201D34B01C01A524103098B4201D36A
:10038C000B01C01A5241C3088B4201D3CB00C01AD7
:10039C00524183088B4201D38B00C01A5241D9D2EF
:1003AC0043088B4201D34B00C01A5241411A00D270
:1003BC000146634652415B10104601D34042002B6C
:1003CC0000D54942704763465B1000D3404201B5EB
:1003DC00002000F005F802BD0029F8D016E77047A0
:1003EC007047C046002B11D1002A0FD1002900D133
:1003FC00002802D00021C943081C07B4024802A1FE
:10040C004018029003BDC046D9FFFFFF03B46846F5
:10041C0001B5029800F006F8019B9E4602B00CBC98
:10042C007047C046F0B557464E464546DE46E0B5E9
:10043C0004000D009246994683B08B4230D82DD0E3
:10044C004946504600F0BAF829000600200000F09A
:10045C00B5F8331A9846203B9B4633D45A4653463C
:10046C00934042461F00534693401E00AF423AD879
:10047C00AF4200D178E05B46A41BBD41002B00DAF3
:10048C0075E0002200230092019301235A46934009
:10049C000193012342469340009328E08242CFD936
:1004AC0000220023009201930C9B002B01D01C60B6
:1004BC005D600098019903B0F0BCBB46B246A946FA
:1004CC00A046F0BD424620239B1A5246DA404146D4
:1004DC0013004A468A40170042461F435346934036
:1004EC001E00AF42C4D90022002300920193434660
:1004FC00002BD9D0FB0772081A4346467B080EE046
:10050C00AB4201D1A2420CD8A41A9D41012024195E
:10051C006D410021013E24184D41002E06D0AB4206
:10052C00EED9013E24196D41002EF8D100980199A5
:10053C005B4600196941002B24DB2B005A464446CC
:10054C00D3402A00E2401C005B461500002B2ADB3E
:10055C0026009E40330026004746BE403200801ADB
:10056C009941009001919FE7A342BCD883E7424692
:10057C00202300219B1A0022009101920122DA40D3
:10058C00019286E7424620239B1A2A0046469A404F
:10059C002300F340444613432A00E2401C005B4610
:1005AC001500002BD4DA42462F002023260097405A
:1005BC009B1ADE403B003343CDE7C04610B5002903
:1005CC0003D100F007F8203002E0081C00F002F81C
:1005DC0010BDC0461C2101231B04984201D3000C02
:1005EC0010391B0A984201D3000A08391B0998429A
:1005FC0001D30009043902A2105C40187047C046B0
:10060C0004030202010101010000000000000000CF
:10061C0080B500AF00F03EFA00F005F800F0B0F83D
:10062C0000F060F8FEE790B593B000AF10243B19D2
:10063C00180038231A00002102F062F93B00180060
:10064C0010231A00002102F05BF98023DB00180054
:10065C0000F0DCFC3B1902221A603B19802252008C
:10066C00DA6021007B1800221A617B1840225A6143
:10067C007B180222DA617B1802221A627B18002294
:10068C005A627B1808229A627B1880229202DA62E4
:10069C007B18802292041A637B18802292055A637D
:1006AC007B18180000F0FEFC031E01D000F020F9AE
:1006BC003B0007221A603B0002225A603B000022DA
:1006CC009A603B00C022D201DA603B000021180086
:1006DC0001F008F8031E01D000F00AF9C046BD462F
:1006EC0013B090BD80B500AF234B244A1A60224B47
:1006FC00E12252025A60204B00229A601E4B0022CB
:10070C00DA601D4B00221A611B4B0C225A611A4BEA
:10071C0000229A61184B0022DA61174B00221A62F0
:10072C00154B00225A62144B00229A62124B18008D
:10073C0001F0FCFA031E01D000F0DAF80E4B002198
:10074C00180001F0D9FF031E01D000F0D1F80A4BBC
:10075C000021180002F010F8031E01D000F0C8F8B8
:10076C00054B180001F08EFF031E01D000F0C0F8FD
:10077C00C046BD4680BDC046280000200038014060
:10078C0090B589B000AF0C243B19180014231A0043
:10079C00002102F0B5F8524B5A6B514B04210A431D
:1007AC005A634F4B5B6B04221340BB60BB684C4BD2
:1007BC005A6B4B4B01210A435A63494B5B6B012229
:1007CC0013407B607B68464B5A6B454B02210A43B6
:1007DC005A63434B5B6B022213403B603B684149BD
:1007EC00414B0022180000F0F3FB404B0022C021CB
:1007FC00180000F0EDFB88231902A023DB05002272
:10080C00180000F0E5FB3B19802292011A603B199D
:10081C0000225A603B1900229A603B19334A190096
:10082C00100000F071FA3B19C0221A603B19032228
:10083C005A603B1900229A603A19A023DB0511007B
:10084C00180000F061FA3B19264A1A603B19012284
:10085C005A603B1900229A603B190022DA603B195E
:10086C00214A1900100000F04FFA3B1904221A60BB
:10087C003B1903225A603B1900229A603B191A4A11
:10088C001900100000F040FA3B19C0221A603B1905
:10089C0001225A603B1900229A603B190022DA604F
:1008AC003B19124A1900100000F02EFA21007B1897
:1008BC00882212021A607B1801225A607B180022CF
:1008CC009A607B180022DA607A18A023DB051100ED
:1008DC00180000F019FAC046BD4609B090BDC046DC
:1008EC0000100240030300000004005000080050F8
:1008FC0080B500AF72B6C046FEE7000080B582B08E
:10090C0000AF0F4B1A6C0E4B01210A431A640C4BAF
:10091C001B6C012213407B607B68094BDA6B084B24
:10092C00802149050A43DA63054BDA6B80235B05AA
:10093C0013403B603B68C046BD4602B080BDC0461C
:10094C000010024090B595B000AF78603C23FB18C6
:10095C00180014231A00002101F0D2FF14243B19B3
:10096C00180028231A00002101F0CAFF7B681B68BD
:10097C00234A93423FD13B1901221A603B190022B2
:10098C005A603B19180001F057F8031E01D0FFF70D
:10099C00AFFF1C4B1A6C1B4B8021C9010A431A6414
:1009AC00184B1A6C8023DB0113403B613B69154BE0
:1009BC005A6B144B01210A435A63124B5B6B012295
:1009CC001340FB60FB683C217B18C022D2001A60EC
:1009DC007B1802225A607B1800229A607B18002236
:1009EC00DA607B1801221A617A18A023DB0511004A
:1009FC00180000F089F9C046BD4615B090BDC04640
:100A0C00003801400010024080B500AFFEE780B511
:100A1C0000AFFEE780B500AFC046BD4680BD80B5D7
:100A2C0000AFC046BD4680BD80B500AF00F09CF85D
:100A3C00C046BD4680BD80B500AFC046BD4680BD3A
:100A4C000D488546FFF7F7FF0C480D490D4A00236A
:100A5C0002E0D458C4500433C4188C42F9D30A4A67
:100A6C000A4C002301E013600432A242FBD301F0D4
:100A7C0023FFFFF7CDFDFEE7002000200000002043
:100A8C000C000020CC2900080C000020BC00002029
:100A9C00FEE7000080B582B000AFFB1D00221A708B
:100AAC000B4B1A680A4B802149000A431A60032039
:100ABC0000F010F8031E03D0FB1D01221A7001E098
:100ACC00FFF71CFFFB1D1B781800BD4602B080BD54
:100ADC000020024090B585B000AF78600F23FB1862
:100AEC0000221A701D4B1B78002B2BD01C4B1C6842
:100AFC001A4B1B781900FA239800FFF7FDFA030034
:100B0C0019002000FFF7F8FA0300180000F0EFF8C6
:100B1C00031E12D17B68032B0AD8796801235B4230
:100B2C000022180000F0CEF80E4B7A681A600DE027
:100B3C000F23FB1801221A7008E00F23FB18012267
:100B4C001A7003E00F23FB1801221A700F23FB18F5
:100B5C001B781800BD4605B090BDC04608000020AB
:100B6C00000000200400002080B500AF054B1B786E
:100B7C001A00054B1B68D218034B1A60C046BD46C1
:100B8C0080BDC04608000020B800002080B500AF32
:100B9C00024B1B681800BD4680BDC046B800002043
:100BAC0090B583B000AF02003960FB1D1A70FB1DBD
:100BBC001B787F2B28D82F4AFB1D1B785BB29B0818
:100BCC00C0339B009B58FA1D1278110003220A4077
:100BDC00D200FF2191400A00D2431A4011003B6819
:100BEC009B01FF221A40FB1D1B78180003230340B6
:100BFC00DB009A401F48FB1D1B785BB29B080A4325
:100C0C00C0339B001A5031E01B4AFB1D1B781900A6
:100C1C000F230B40083B9B0806339B00D31804336F
:100C2C001B68FA1D1278110003220A40D200FF2122
:100C3C0091400A00D2431A4011003B689B01FF22ED
:100C4C001A40FB1D1B78180003230340DB009A405D
:100C5C000948FB1D1B781C000F232340083B9B08F5
:100C6C000A4306339B00C31804331A60C046BD46C2
:100C7C0003B090BD00E100E000ED00E080B582B073
:100C8C0000AF78607B685A1E80235B049A4201D3C4
:100C9C00012310E00A4B7A68013A5A6001235B4247
:100CAC0003211800FFF77CFF054B00229A60044BD0
:100CBC0007221A6000231800BD4602B080BDC04652
:100CCC0010E000E080B584B000AFB9607A600F210D
:100CDC007B18021C1A70BA687B181B785BB2110067
:100CEC001800FFF75DFFC046BD4604B080BD80B55F
:100CFC0082B000AF78607B681800FFF7BFFF03007D
:100D0C001800BD4602B080BD80B586B000AF7860DB
:100D1C00396000237B6147E13B681B6801217A69DC
:100D2C0091400A001340FB60FB68002B00D138E1B6
:100D3C003B685B6803221340012B05D03B685B6862
:100D4C0003221340022B30D17B689B683B617B698B
:100D5C005B0003229A401300DA433B6913403B616A
:100D6C003B68DA687B695B009A4013003A6913436D
:100D7C003B617B683A699A607B685B683B610122E6
:100D8C007B699A401300DA433B6913403B613B6833
:100D9C005B681B0901221A407B699A4013003A696F
:100DAC0013433B617B683A695A603B685B6803227A
:100DBC001340032B17D07B68DB683B617B695B00BE
:100DCC0003229A401300DA433B6913403B613B68B2
:100DDC009A687B695B009A4013003A6913433B6144
:100DEC007B683A69DA603B685B6803221340022B2C
:100DFC0023D17B69DA087B6808329200D3583B61B7
:100E0C007B69072213409B000F229A401300DA43A0
:100E1C003B6913403B613B681A697B6907210B40B6
:100E2C009B009A4013003A6913433B617B69DA08D3
:100E3C007B68083292003969D1507B681B683B6132
:100E4C007B695B0003229A401300DA433B69134031
:100E5C003B613B685B6803221A407B695B009A40EC
:100E6C0013003A6913433B617B683A691A603B682B
:100E7C005A68C0239B02134000D192E0504A7B6910
:100E8C009B0818339B009B583B617B6903221340E2
:100E9C00DB000F229A401300DA433B6913403B619D
:100EAC007A68A023DB059A4213D07B68454A9342AB
:100EBC000DD07B68444A934207D07B68434A9342E7
:100ECC0001D1032306E0052304E0022302E0012301
:100EDC0000E000237A6903210A40D20093403A696A
:100EEC0013433B6136497B699B0818339B003A6975
:100EFC005A50334A8023D3583B61FB68DA433B6931
:100F0C0013403B613B685A6880235B02134003D05B
:100F1C003A69FB6813433B61294980223B698B503A
:100F2C00274A8423D3583B61FB68DA433B6913405F
:100F3C003B613B685A6880239B02134003D03A699B
:100F4C00FB6813433B611E4984223B698B501C4B4D
:100F5C001B683B61FB68DA433B6913403B613B68B0
:100F6C005A6880235B03134003D03A69FB68134330
:100F7C003B61134B3A691A60114B5B683B61FB6830
:100F8C00DA433B6913403B613B685A6880239B03FF
:100F9C00134003D03A69FB6813433B61084B3A6931
:100FAC005A607B6901337B613B681A687B69DA4064
:100FBC00131E00D0B0E6C046C046BD4606B080BD8C
:100FCC00001802400004005000080050000C0050B3
:100FDC0080B582B000AF786008001100BB1C021C09
:100FEC001A807B1C0A1C1A707B1C1B78002B04D0EB
:100FFC00BB1C1A887B689A6103E0BB1C1A887B684F
:10100C009A62C046BD4602B080BD000080B584B077
:10101C0000AF7860194B1B68194A13401900174B25
:10102C007A680A431A607A6880239B009A421FD11F
:10103C00144B1A6813005B009B185B0012491800D4
:10104C00FFF75AF803000133FB6008E0FB68002B44
:10105C0003D0FB68013BFB6001E0032309E0074B75
:10106C005A698023DB001A408023DB009A42EDD0C2
:10107C0000231800BD4604B080BDC046007000407F
:10108C00FFF9FFFF0000002040420F0080B500AFC9
:10109C00034B9A68E023DB0113401800BD4680BD6A
:1010AC000010024080B588B000AF78607B68002BE0
:1010BC0001D1012304E37B681B680122134000D19A
:1010CC007CE0C34B9B6838221340BB61C04BDB6890
:1010DC00032213407B61BB69102B02D17B69032B6C
:1010EC0002D0BB69082B0BD1B94B1A6880239B0229
:1010FC00134062D07B685B68002B5ED10123DFE27A
:10110C007B685A6880235B029A4207D1B04B1A68FD
:10111C00AF4B802149020A431A6020E07B685A6871
:10112C00A023DB029A420ED1A94B1A68A84B80214E
:10113C00C9020A431A60A64B1A68A54B80214902C2
:10114C000A431A600BE0A24B1A68A14BA1490A4052
:10115C001A609F4B1A689E4B9F490A401A607B6825
:10116C005B68002B14D0FFF711FD03003B6108E016
:10117C00FFF70CFD02003B69D31A642B01D9032342
:10118C009EE2934B1A6880239B021340F0D015E02B
:10119C00FFF7FCFC03003B6108E0FFF7F7FC0200E3
:1011AC003B69D31A642B01D9032389E2884B1A6853
:1011BC0080239B021340F0D100E0C0467B681B6883
:1011CC000222134000D199E0814B9B6838221340D6
:1011DC00BB617F4BDB68032213407B61BB69102B27
:1011EC0002D17B69022B02D0BB69002B35D1784B25
:1011FC001A688023DB00134005D07B68DB68002B6A
:10120C0001D101235CE2724B5B68744A13401900F4
:10121C007B685B691A026E4B0A435A60BB69002BF0
:10122C0012D16B4B1B686E4A134019007B681A690C
:10123C00674B0A431A60664B1B68DB0A0722134094
:10124C00684ADA40684B1A60684B1B681800FFF755
:10125C0041FC031E51D0012332E27B68DB68002B7A
:10126C0030D05B4B1B685E4A134019007B681A69CF
:10127C00574B0A431A60564B1A68554B802149004C
:10128C000A431A60FFF782FC03003B6108E0FFF79A
:10129C007DFC02003B69D31A022B01D903230FE218
:1012AC004B4B1A688023DB001340F0D0484B5B6833
:1012BC004A4A134019007B685B691A02444B0A4383
:1012CC005A601BE0424B1A68414B49490A401A606C
:1012DC00FFF75CFC03003B6108E0FFF757FC0200E2
:1012EC003B69D31A022B01D90323E9E1384B1A6865
:1012FC008023DB001340F0D100E0C0467B681B6804
:10130C000822134047D0324B9B6838221340182BCD
:10131C000AD12F4B1B6E022213403CD07B689B6979
:10132C00002B38D10123CBE17B689B69002B19D0B2
:10133C00274B1A6E264B01210A431A66FFF726FC2F
:10134C0003003B6108E0FFF721FC02003B69D31A64
:10135C00022B01D90323B3E11D4B1B6E0222134058
:10136C00F1D018E01A4B1A6E194B01218A431A66F8
:10137C00FFF70CFC03003B6108E0FFF707FC0200E1
:10138C003B69D31A022B01D9032399E1104B1B6E35
:10139C0002221340F1D17B681B680422134000D158
:1013AC00C6E01F23FB1800221A70094B9B683822D9
:1013BC001340202B1ED1064BDB6D0222134000D1B3
:1013CC00B6E07B689B68002B00D0B1E0012377E18D
:1013DC0000100240FFFFFEFFFFFFFBFFFF80FFFF3F
:1013EC00FFC7FFFF0024F4000000002004000020D1
:1013FC00FFFEFFFFB44BDA6B80235B05134001D17A
:10140C00012300E00023002B11D0AF4BDA6BAE4B65
:10141C00802149050A43DA63AB4BDA6B80235B0509
:10142C001340FB60FB681F23FB1801221A70A74BAB
:10143C001A6880235B0013401AD1A44B1A68A34B83
:10144C00802149000A431A60FFF7A0FB03003B61AF
:10145C0008E0FFF79BFB02003B69D31A022B01D972
:10146C0003232DE1994B1A6880235B001340F0D0C5
:10147C007B689B68012B06D1934BDA6D924B012153
:10148C000A43DA651CE07B689B68052B0CD18E4BFC
:10149C00DA6D8D4B04210A43DA658B4BDA6D8A4B7E
:1014AC0001210A43DA650BE0874BDA6D864B01218B
:1014BC008A43DA65844BDA6D834B04218A43DA65FF
:1014CC007B689B68002B14D0FFF760FB03003B612B
:1014DC0009E0FFF75BFB02003B69D31A7C4A93429D
:1014EC0001D90323ECE0784BDB6D02221340F0D0E2
:1014FC0013E0FFF74BFB03003B6109E0FFF746FBF2
:10150C0002003B69D31A724A934201D90323D7E0F4
:10151C006D4BDB6D02221340F0D11F23FB181B789F
:10152C00012B05D1684BDA6B674B6A490A40DA63C9
:10153C007B68DB69002B00D1C1E0634B9B683822D0
:10154C001340102B00D181E07B68DB69022B56D154
:10155C005D4B1A685C4B60490A401A60FFF716FB3A
:10156C0003003B6108E0FFF711FB02003B69D31A53
:10157C00022B01D90323A3E0534B1A6880239B044D
:10158C001340F0D1504BDB68544A134019007B6870
:10159C001A6A7B685B6A1A437B689B6A1B021A4354
:1015AC007B68DB6A1A437B681B6B1A437B685B6B3B
:1015BC001A43454B0A43DA60434B1A68424B80216D
:1015CC0049040A431A60404BDA683F4B80214905B5
:1015DC000A43DA60FFF7DAFA03003B6108E0FFF731
:1015EC00D5FA02003B69D31A022B01D9032367E019
:1015FC00354B1A6880239B041340F0D05FE0324BCC
:10160C001A68314B34490A401A602F4BDA682E4B5A
:10161C0003218A43DA602C4BDA682B4B30490A40A1
:10162C00DA60FFF7B3FA03003B6108E0FFF7AEFAAC
:10163C0002003B69D31A022B01D9032340E0224B51
:10164C001A6880239B041340F0D138E07B68DB6977
:10165C00012B01D1012333E01B4BDB687B617B69E0
:10166C0003221A407B681B6A9A4226D17B6970223E
:10167C001A407B685B6A9A421FD17A69FE23DB01B0
:10168C001A407B689B6A1B029A4216D17A69F8232E
:10169C009B031A407B68DB6A9A420ED17A69E0237D
:1016AC001B051A407B681B6B9A4206D17B695B0F4A
:1016BC005A077B685B6B9A4201D0012300E0002340
:1016CC001800BD4608B080BD0010024000700040FC
:1016DC0088130000FFFFFFEFFFFFFFFE8C80C1119E
:1016EC00FFFFFEEE80B584B000AF786039607B6898
:1016FC00002B01D10123E9E0764B1B680722134034
:10170C003A689A421ED9734B1B68072293431900FF
:10171C00704B3A680A431A60FFF738FA0300FB6013
:10172C0009E0FFF733FA0200FB68D31A6A4A9342C6
:10173C0001D90323CAE0674B1B68072213403A68A0
:10174C009A42EED17B681B680222134015D07B684D
:10175C001B680422134006D0604B9A685F4BE02153
:10176C00C9010A439A605D4B9B685D4A134019009E
:10177C007B689A68594B0A439A607B681B68012204
:10178C00134057D07B685B68012B07D1534B1A6809
:10179C0080239B0213402BD1012397E07B685B686D
:1017AC00022B07D14D4B1A6880239B0413401FD189
:1017BC0001238BE07B685B68002B07D1474B1A68D1
:1017CC008023DB00134013D101237FE07B685B682F
:1017DC00032B06D1414B1B6E0222134008D101236F
:1017EC0074E03E4BDB6D0222134001D101236DE00E
:1017FC003A4B9B680722934319007B685A68374B16
:10180C000A439A60FFF7C2F90300FB6009E0FFF797
:10181C00BDF90200FB68D31A2F4A934201D9032366
:10182C0054E02E4B9B6838221A407B685B68DB00C7
:10183C009A42ECD1274B1B68072213403A689A4214
:10184C001ED2244B1B68072293431900214B3A6884
:10185C000A431A60FFF79AF90300FB6009E0FFF7EF
:10186C0095F90200FB68D31A1B4A934201D9032352
:10187C002CE0184B1B68072213403A689A42EED1B1
:10188C007B681B680422134009D0144B9B68154AD3
:10189C00134019007B68DA68104B0A439A6000F019
:1018AC0029F801000D4B9B681B0A0F221A400E4BA6
:1018BC009200D3581F2213400A00DA400B4B1A60D7
:1018CC000B4B1B681800FFF705F903001800BD4609
:1018DC0004B080BD002002408813000000100240BC
:1018EC00FFF0FFFFFF8FFFFF3429000800000020EE
:1018FC000400002080B586B000AF3C4B9B683822BA
:10190C0013400FD1394B1B68DB0A0722134001220D
:10191C009A4013003B6039683548FEF7EDFB030035
:10192C003B615DE0314B9B6838221340082B02D1A0
:10193C00304B3B6154E02D4B9B6838221340102BED
:10194C0038D12A4BDB6803221340FB60274BDB6842
:10195C001B09072213400133BB60FB68032B0DD11D
:10196C00B9682448FEF7C8FB030019001F4BDB685D
:10197C001B0A7F2213404B437B610DE0B9681C4866
:10198C00FEF7BAFB03001900184BDB681B0A7F2219
:10199C0013404B437B61C046144BDB685B0F072243
:1019AC00134001337B6079687869FEF7A5FB03006F
:1019BC003B6115E00D4B9B6838221340202B03D163
:1019CC0080231B023B610BE0084B9B6838221340C1
:1019DC00182B03D1FA23DB013B6101E000233B61AF
:1019EC003B691800BD4606B080BDC04600100240E1
:1019FC000024F40000127A0080B500AF024B1B6883
:101A0C001800BD4680BDC04600000020B0B500AF38
:101A1C00FFF7F2FF0400FFF739FB03001A0B054B2D
:101A2C009200D3581F221340DC4023001800BD46FF
:101A3C00B0BDC0467429000880B586B000AF786090
:101A4C001323FB1800221A701223FB1800221A70A1
:101A5C007B681A6880239B02134000D1A3E01120FD
:101A6C003B1800221A70A54BDA6B80235B051340E0
:101A7C0010D1A24BDA6BA14B802149050A43DA63E2
:101A8C009E4BDA6B80235B051340BB60BB683B1835
:101A9C0001221A709A4B1A68994B802149000A430B
:101AAC001A60FFF773F80300FB600BE0FFF76EF8AA
:101ABC000200FB68D31A022B04D91323FB18032250
:101ACC001A7005E08E4B1A6880235B001340EDD032
:101ADC001323FB181B78002B54D1884BDA6DC023D1
:101AEC009B0013407B617B69002B19D07B685B6A80
:101AFC007A699A4214D0814BDB6D824A13407B6128
:101B0C007E4BDA6D7D4B802149020A43DA657B4BB3
:101B1C00DA6D7A4B7C490A40DA65784B7A69DA657A
:101B2C007B690122134016D0FFF730F80300FB60ED
:101B3C000CE0FFF72BF80200FB68D31A734A9342B0
:101B4C0004D91323FB1803221A7004E06B4BDB6DD2
:101B5C0002221340EDD01323FB181B78002B0AD163
:101B6C00664BDB6D674A134019007B685A6A634BFE
:101B7C000A43DA650CE01223FB181322BA18127808
:101B8C001A7005E01223FB181322BA1812781A7077
:101B9C001123FB181B78012B05D1584BDA6B574BD3
:101BAC005B490A40DA637B681B680122134009D049
:101BBC00524B5B6D0322934319007B685A684F4B61
:101BCC000A435A657B681B681022134009D04B4BA3
:101BDC005B6D504A134019007B689A68474B0A4367
:101BEC005A657B681A6880239B00134009D0434BCD
:101BFC005B6D494A134019007B685A693F4B0A4395
:101C0C005A657B681A688023DB00134009D03B4B74
:101C1C005B6D424A134019007B689A69374B0A4343
:101C2C005A657B681B682022134009D0334B5B6DCF
:101C3C003B4A134019007B68DA68304B0A435A65FB
:101C4C007B681A688023DB01134015D02B4B5B6D2E
:101C5C009B0099087B68DA69284B0A435A657B68B4
:101C6C00DA698023DB059A4206D1244BDA68234BD0
:101C7C00802149020A43DA607B681A6880239B033F
:101C8C00134016D01D4B5B6D264A134019007B6820
:101C9C001A6A1A4B0A435A657B681A6A8023DB035B
:101CAC009A4206D1154BDA68144B802149040A4339
:101CBC00DA607B681A6880231B01134016D00F4B27
:101CCC005B6D194A134019007B681A690B4B0A4368
:101CDC005A657B681A698023DB019A4206D1074B4F
:101CEC00DA68064B802149020A43DA601223FB189A
:101CFC001B781800BD4606B080BDC04600100240DF
:101D0C0000700040FFFCFFFFFFFFFEFF8813000088
:101D1C00FFFFFFEFFFF3FFFFFFFFF3FFFFFFCFFF1F
:101D2C00FFCFFFFFFFFFBFFFFF3FFFFF80B582B07C
:101D3C0000AF78607B68002B01D1012346E07B6803
:101D4C0084229B58002B07D17B6880220021995458
:101D5C007B681800FEF7F6FD7B68842224219950DD
:101D6C007B681B681A687B681B6801218A431A60B0
:101D7C007B68180000F030F80300012B01D101231F
:101D8C0024E07B689B6A002B03D07B68180000F072
:101D9C00B3FA7B681B685A687B681B680D490A405C
:101DAC005A607B681B689A687B681B682A218A4387
:101DBC009A607B681B681A687B681B6801210A4360
:101DCC001A607B68180000F04BFB03001800BD463E
:101DDC0002B080BDFFB7FFFFB0B590B000AF786226
:101DEC001A2320229446BC44634400221A707B6A56
:101DFC009A687B6A1B691A437B6A5B691A437B6A24
:101E0C00DB691343FB637B6A1B681B68C74A13407F
:101E1C0019007B6A1A68FB6B0B4313607B6A1B68A7
:101E2C005B68C34A134018007B6AD9687B6A1A68DE
:101E3C0003000B4353607B6A9B69FB637B6A1B68E3
:101E4C00BC4A934204D07B6A1B6AFA6B1343FB6354
:101E5C007B6A1B689B68B84A134019007B6A1A6836
:101E6C00FB6B0B4393607B6A1B68DB6A0F2293430B
:101E7C0018007B6A596A7B6A1A6803000B43D362A9
:101E8C007B6A1B68AD4A934236D1AD4B5B6D032226
:101E9C001340032B20D027D8022B0DD024D8002B95
:101EAC0002D0012B10D01FE01B2320229446BC44EF
:101EBC00634400221A707CE01B2320229446BC440D
:101ECC00634402221A7074E01B2320229446BC4403
:101EDC00634404221A706CE01B2320229446BC44F9
:101EEC00634408221A7064E01B2320229446BC44ED
:101EFC00634410221A705CE07B6A1B68914A93421F
:101F0C0007D11B2320229446BC44634400221A7040
:101F1C004FE07B6A1B68874A934243D1884B5A6DCA
:101F2C00C0231B011340C022120193422AD0C022AD
:101F3C00120193422ED880221201934212D0802299
:101F4C001201934226D8002B04D08022D200934257
:101F5C0010D01FE01B2320229446BC446344002273
:101F6C001A7026E01B2320229446BC4463440222B0
:101F7C001A701EE01B2320229446BC4463440422A6
:101F8C001A7016E01B2320229446BC44634408229A
:101F9C001A700EE01B2320229446BC44634410228A
:101FAC001A7006E01B2320229446BC446344102282
:101FBC001A707B6A1B685F4A934200D096E01B2321
:101FCC0020229446BC4463441B78082B15D018DCA3
:101FDC00042B0DD015DC002B02D0022B05D010E009
:101FEC00FFF714FD03007B6315E0574B7B6312E096
:101FFC00FFF780FC03007B630DE080231B027B63F7
:10200C0009E000237B631A2320229446BC446344DA
:10201C0001221A70C0467B6B002B00D14FE17B6A0A
:10202C005A6A4A4B5200D35A1900786BFEF764F87F
:10203C000300BB627B6A5A6813005B009B18BA6A88
:10204C009A4205D37B6A5B681B03BA6A9A4207D92A
:10205C001A2320229446BC44634401221A702EE1B8
:10206C007B6BBB610023FB617B6A5A6A374B520066
:10207C00D35A3B6100237B613A697B69B869F96982
:10208C00FEF7B0F902000B00110E1D020D431402F5
:10209C007B6A5B685B08BB600023FB60B868F9680F
:1020AC00001969417B6A5B683B6000237B603A687E
:1020BC007B68FEF797F902000B0013003B633A6B49
:1020CC00C0239B009A4209D33A6B80235B039A424C
:1020DC0004D27B6A1B683A6BDA60F0E01A23202288
:1020EC009446BC44634401221A70E8E07B6ADA69C6
:1020FC0080231B029A4200D086E01B2320229446A8
:10210C00BC4463441B78082B27D02ADC042B1FD03B
:10211C0027DC002B02D0022B05D022E0FFF776FC47
:10212C0003007B6327E0084B7B6324E0F369FFCF5C
:10213C00FFCFFFFF00800040FFF4FF11003801408B
:10214C0000100240004400400024F40094290008D0
:10215C00FFF7D0FB03007B630DE080231B027B6346
:10216C0009E000237B631A2320229446BC44634479
:10217C0001221A70C0467B6B002B00D19FE07B6A5A
:10218C005A6A5B4B5200D35A1900786BFDF7B4FFB7
:10219C0003005A007B6A5B685B08D2187B6A5B6839
:1021AC0019001000FDF7A8FF03009BB23B633B6BCB
:1021BC000F2B21D93A6B80235B029A421CD23B6BCA
:1021CC009AB20E2020243B191B180F218A431A8027
:1021DC003B6B5B089BB20722134099B23B191B184F
:1021EC003A19121812880A431A807B6A1B683A192A
:1021FC0012181288DA6062E01A2320229446BC443A
:10220C00634401221A705AE01B2320229446BC44DA
:10221C0063441B78082B15D018DC042B0DD015DC6F
:10222C00002B02D0022B05D010E0FFF7EFFB0300D0
:10223C007B6315E02F4B7B6312E0FFF75BFB030026
:10224C007B630DE080231B027B6309E000237B632F
:10225C001A2320229446BC44634401221A70C046BF
:10226C007B6B002B2BD07B6A5A6A214B5200D35AC2
:10227C001900786BFDF740FF03001A007B6A5B685E
:10228C005B08D2187B6A5B6819001000FDF734FFFD
:10229C0003009BB23B633B6B0F2B09D93A6B80233A
:1022AC005B029A4204D27B6A1B683A6BDA6006E0E6
:1022BC001A2320229446BC44634401221A707B6A80
:1022CC006A22012199527B6A6822012199527B6A08
:1022DC0000221A677B6A00225A671A23202294462E
:1022EC00BC4463441B781800BD4610B0B0BDC0465A
:1022FC00942900080024F40080B582B000AF786007
:10230C007B689B6A012213400BD07B681B685B685F
:10231C004A4A134019007B68DA6A7B681B680A43D7
:10232C005A607B689B6A022213400BD07B681B6847
:10233C005B68434A134019007B681A6B7B681B6807
:10234C000A435A607B689B6A042213400BD07B685B
:10235C001B685B683B4A134019007B685A6B7B68AF
:10236C001B680A435A607B689B6A082213400BD097
:10237C007B681B685B68344A134019007B689A6B56
:10238C007B681B680A435A607B689B6A1022134067
:10239C000BD07B681B689B682C4A134019007B6828
:1023AC00DA6B7B681B680A439A607B689B6A202205
:1023BC0013400BD07B681B689B68254A134019009F
:1023CC007B681A6C7B681B680A439A607B689B6A03
:1023DC00402213401DD07B681B685B681D4A13406C
:1023EC0019007B685A6C7B681B680A435A607B68CF
:1023FC005A6C80235B039A420BD17B681B685B6829
:10240C00154A134019007B689A6C7B681B680A4359
:10241C005A607B689B6A802213400BD07B681B68D8
:10242C005B680E4A134019007B68DA6C7B681B688A
:10243C000A435A60C046BD4602B080BDFFFFFDFF97
:10244C00FFFFFEFFFFFFFBFFFF7FFFFFFFEFFFFF25
:10245C00FFDFFFFFFFFFEFFFFFFF9FFFFFFFF7FF18
:10246C0080B586B002AF78607B688C2200219950D1
:10247C00FEF78CFB0300FB607B681B681B68082263
:10248C001340082B0CD1FB68802291037868184A02
:10249C000092002200F02EF8031E01D0032323E04B
:1024AC007B681B681B6804221340042B0CD1FB684F
:1024BC008022D10378680E4A0092002200F01AF8AC
:1024CC00031E01D003230FE07B6884222021995046
:1024DC007B688822202199507B680022DA667B6811
:1024EC0080220021995400231800BD4604B080BD01
:1024FC00FFFFFF0180B594B000AFF860B9603B609E
:10250C00FB1D1A70A7E0BB6D013300D1A3E0FEF7F1
:10251C003DFB02003B68D31ABA6D9A4202D3BB6DE5
:10252C00002B3FD1EFF31083BB62BB6A7B640123AA
:10253C00FB62FB6A83F31088C046FB681B681A6851
:10254C00FB681B684E490A401A607B6C3B633B6B13
:10255C0083F31088C046EFF310837B637B6B3B6483
:10256C000123BB63BB6B83F31088C046FB681B68FD
:10257C009A68FB681B6801218A439A603B6CFB6379
:10258C00FB6B83F31088C046FB6884222021995092
:10259C00FB68882220219950FB68802200219954E5
:1025AC00032369E0FB681B681B680422134052D0AC
:1025BC00FB681B68DA6980231B011A4080231B010E
:1025CC009A4248D1FB681B68802212011A62EFF311
:1025DC0010833B613B69FB6401237B617B6983F363
:1025EC001088C046FB681B681A68FB681B68244986
:1025FC000A401A60FB6CBB61BB6983F31088C04650
:10260C00EFF31083FB61FB69BB6401233B623B6A04
:10261C0083F31088C046FB681B689A68FB681B68CC
:10262C0001218A439A60BB6C7B627B6A83F31088BE
:10263C00C046FB68842220219950FB688822202107
:10264C009950FB688C2220219950FB688022002134
:10265C009954032310E0FB681B68DB69BA681340CC
:10266C00BA68D31A5A425341DBB21A00FB1D1B78CD
:10267C009A4200D147E700231800BD4614B080BD34
:10268C005FFEFFFF80B584B000AF78607B6880226E
:10269C009B5C012B01D1022327E07B688022012166
:1026AC0099547B688422242199507B681B681B6891
:1026BC00FB607B681B681A687B681B6801218A4376
:1026CC001A60FB680B4A1340FB607B6800225A6659
:1026DC007B681B68FA681A607B68842220219950F9
:1026EC007B6880220021995400231800BD4604B059
:1026FC0080BDC046FFFFFFDF80B584B000AF7860BF
:10270C0039607B6880229B5C012B01D102232EE077
:10271C007B688022012199547B6884222421995062
:10272C007B681B681B68FB607B681B681A687B688E
:10273C001B6801218A431A607B681B689B68DB005D
:10274C00D9087B681B683A680A439A607B68180052
:10275C0000F054F87B681B68FA681A607B68842266
:10276C00202199507B688022002199540023180065
:10277C00BD4604B080BD000080B584B000AF786069
:10278C0039607B6880229B5C012B01D102232FE0F6
:10279C007B688022012199547B68842224219950E2
:1027AC007B681B681B68FB607B681B681A687B680E
:1027BC001B6801218A431A607B681B689B680E4A60
:1027CC00134019007B681B683A680A439A607B685F
:1027DC00180000F013F87B681B68FA681A607B68B5
:1027EC008422202199507B68802200219954002357
:1027FC001800BD4604B080BDFFFFFFF1F0B585B0F9
:10280C0000AF78607B685B6E002B08D17B686A2216
:10281C00012199527B6868220121995243E00F26CD
:10282C00BB1908221A700E203B1808221A707B68FC
:10283C001B689B685B0EDAB20D243B1907210A401A
:10284C001A707B681B689B685B0FDAB20C257B19CE
:10285C0007210A401A703B181B787A191278144910
:10286C008A5C5A4310007B191B78124AD35C1900FE
:10287C00FDF7CCFC030099B27B686A229952BB1914
:10288C001B783A1912780A498A5C5A4310003B1992
:10289C001B78084AD35C1900FDF7B8FC030099B209
:1028AC007B6868229952C046BD4605B0F0BDC04653
:1028BC00AC290008B429000870B500260C4D0D4C4D
:1028CC00641BA410A64209D1002600F021F80A4D81
:1028DC000A4C641BA410A64205D170BDB300EB5882
:1028EC0098470136EEE7B300EB5898470136F2E70C
:1028FC00C4290008C4290008C4290008C8290008F4
:10290C0003008218934200D1704719700133F9E724
:10291C00F8B5C046F8BC08BC9E467047F8B5C04632
:08292C00F8BC08BC9E46704790
:102934000000000000000000000000000000000093
:102944000000000000000000000000000000000083
:102954000100000002000000030000000400000069
:102964000600000007000000080000000900000045
:102974000000000000000000000000000000000053
:102984000100000002000000030000000400000039
:10299400010002000400060008000A000C001000F8
:1029A4002000400080000001010101030701000034
:0829B4000804020408010101FE
:0829BC0074DAFF7F0100000046
:0429C400E500000822
:0429C800BD00000846
:0C29CC000024F4000400000001000000E2
:0400000508000A4D98
:00000001FF
